{
  "abi": [
    {
      "type": "function",
      "name": "count",
      "inputs": [],
      "outputs": [
        {
          "name": "",
          "type": "uint256",
          "internalType": "uint256"
        }
      ],
      "stateMutability": "view"
    },
    {
      "type": "function",
      "name": "foo",
      "inputs": [],
      "outputs": [
        {
          "name": "",
          "type": "string",
          "internalType": "string"
        }
      ],
      "stateMutability": "pure"
    },
    {
      "type": "function",
      "name": "increment",
      "inputs": [],
      "outputs": [
        {
          "name": "",
          "type": "uint256",
          "internalType": "uint256"
        }
      ],
      "stateMutability": "nonpayable"
    },
    {
      "type": "event",
      "name": "Incremented",
      "inputs": [
        {
          "name": "count",
          "type": "uint256",
          "indexed": false,
          "internalType": "uint256"
        }
      ],
      "anonymous": false
    }
  ],
  "bytecode": {
    "object": "0x60808060405234610016576101a2908161001c8239f35b600080fdfe6080604090808252600436101561001557600080fd5b600090813560e01c90816306661abd1461015257508063c2985578146100ae5763d09de08a1461004457600080fd5b346100ab57806003193601126100ab578054916000198314610097576001602093018092557f20d8a6f5a693f9d1d627a598e8820f7a55ee74c183aa8f1a30e8d4e8dd9a8d84838251848152a151908152f35b634e487b7160e01b82526011600452602482fd5b80fd5b50903461014e578160031936011261014e57805181810181811067ffffffffffffffff82111761013a578252600b81526020906a1a195b1b1bc81ddbdc9b1960aa1b8282015282519382859384528251928382860152825b84811061012457505050828201840152601f01601f19168101030190f35b8181018301518882018801528795508201610106565b634e487b7160e01b84526041600452602484fd5b5080fd5b90503461014e578160031936011261014e57602091548152f3fea2646970667358221220f45d776fef4932b5d28221644318cb721cbbba29ce2bc07103ba0482b71937fa64736f6c63430008140033",
    "linkReferences": {}
  },
  "methodIdentifiers": {
    "count()": "06661abd",
    "foo()": "c2985578",
    "increment()": "d09de08a"
  },
  "id": 7
}