{
  "abi": [
    {
      "type": "constructor",
      "inputs": [
        {
          "name": "validators",
          "type": "address[]",
          "internalType": "address[]"
        }
      ],
      "stateMutability": "nonpayable"
    },
    {
      "type": "function",
      "name": "addValidator",
      "inputs": [
        {
          "name": "user",
          "type": "address",
          "internalType": "address"
        }
      ],
      "outputs": [
        {
          "name": "",
          "type": "bool",
          "internalType": "bool"
        }
      ],
      "stateMutability": "nonpayable"
    },
    {
      "type": "function",
      "name": "getValidators",
      "inputs": [],
      "outputs": [
        {
          "name": "",
          "type": "address[]",
          "internalType": "address[]"
        }
      ],
      "stateMutability": "view"
    },
    {
      "type": "function",
      "name": "isValidator",
      "inputs": [
        {
          "name": "user",
          "type": "address",
          "internalType": "address"
        }
      ],
      "outputs": [
        {
          "name": "",
          "type": "bool",
          "internalType": "bool"
        }
      ],
      "stateMutability": "view"
    },
    {
      "type": "function",
      "name": "owner",
      "inputs": [],
      "outputs": [
        {
          "name": "",
          "type": "address",
          "internalType": "address"
        }
      ],
      "stateMutability": "view"
    },
    {
      "type": "function",
      "name": "removeValidator",
      "inputs": [
        {
          "name": "user",
          "type": "address",
          "internalType": "address"
        }
      ],
      "outputs": [
        {
          "name": "",
          "type": "bool",
          "internalType": "bool"
        }
      ],
      "stateMutability": "nonpayable"
    },
    {
      "type": "function",
      "name": "renounceOwnership",
      "inputs": [],
      "outputs": [],
      "stateMutability": "nonpayable"
    },
    {
      "type": "function",
      "name": "transferOwnership",
      "inputs": [
        {
          "name": "newOwner",
          "type": "address",
          "internalType": "address"
        }
      ],
      "outputs": [],
      "stateMutability": "nonpayable"
    },
    {
      "type": "function",
      "name": "validateMessageWithSupermajority",
      "inputs": [
        {
          "name": "ethSignedMessageHash",
          "type": "bytes32",
          "internalType": "bytes32"
        },
        {
          "name": "signatures",
          "type": "bytes[]",
          "internalType": "bytes[]"
        }
      ],
      "outputs": [],
      "stateMutability": "view"
    },
    {
      "type": "function",
      "name": "validatorsSize",
      "inputs": [],
      "outputs": [
        {
          "name": "",
          "type": "uint256",
          "internalType": "uint256"
        }
      ],
      "stateMutability": "view"
    },
    {
      "type": "event",
      "name": "OwnershipTransferred",
      "inputs": [
        {
          "name": "previousOwner",
          "type": "address",
          "indexed": true,
          "internalType": "address"
        },
        {
          "name": "newOwner",
          "type": "address",
          "indexed": true,
          "internalType": "address"
        }
      ],
      "anonymous": false
    },
    {
      "type": "error",
      "name": "ECDSAInvalidSignature",
      "inputs": []
    },
    {
      "type": "error",
      "name": "ECDSAInvalidSignatureLength",
      "inputs": [
        {
          "name": "length",
          "type": "uint256",
          "internalType": "uint256"
        }
      ]
    },
    {
      "type": "error",
      "name": "ECDSAInvalidSignatureS",
      "inputs": [
        {
          "name": "s",
          "type": "bytes32",
          "internalType": "bytes32"
        }
      ]
    },
    {
      "type": "error",
      "name": "InvalidValidatorOrSignatures",
      "inputs": []
    },
    {
      "type": "error",
      "name": "NoSupermajority",
      "inputs": []
    },
    {
      "type": "error",
      "name": "NonUniqueOrUnorderedSignatures",
      "inputs": []
    },
    {
      "type": "error",
      "name": "OwnableInvalidOwner",
      "inputs": [
        {
          "name": "owner",
          "type": "address",
          "internalType": "address"
        }
      ]
    },
    {
      "type": "error",
      "name": "OwnableUnauthorizedAccount",
      "inputs": [
        {
          "name": "account",
          "type": "address",
          "internalType": "address"
        }
      ]
    }
  ],
  "bytecode": {
    "object": "0x6040608081523461019d57610afe8038038061001a816101b8565b928339810190602090818184031261019d5780516001600160401b039182821161019d57019280601f8501121561019d5783519182116101a25760059382851b9084806100688185016101b8565b80968152019282010192831161019d578401905b82821061017e5750505033156101665760008054336001600160a01b031982168117835591936001600160a01b03939092909184167f8be0079c531659141344cd1fd0a4f28419497f9722a3daafe3b4186f6b6457e08680a3805194845b8681106100ef57875161089c90816102628239f35b825181101561015257848482841b850101511633868854160361013b57610115906101dd565b506000198114610127576001016100da565b634e487b7160e01b86526011600452602486fd5b885163118cdaa760e01b8152336004820152602490fd5b634e487b7160e01b86526032600452602486fd5b8351631e4fbdf760e01b815260006004820152602490fd5b81516001600160a01b038116810361019d57815290840190840161007c565b600080fd5b634e487b7160e01b600052604160045260246000fd5b6040519190601f01601f191682016001600160401b038111838210176101a257604052565b600090808252600260205260408220541560001461025d576001918254680100000000000000008110156102495783810180855581101561023557908260409285835260208320015583549281526002602052205590565b634e487b7160e01b82526032600452602482fd5b634e487b7160e01b82526041600452602482fd5b509056fe6040608081526004908136101561001557600080fd5b600091823560e01c806340a141ff146104be5780634d238c8e14610484578063715018a61461042a5780638da5cb5b14610402578063b7ab4db514610350578063d3de131d14610184578063e36d526514610161578063f2fde38b146100d35763facd743b1461008457600080fd5b346100cf5760203660031901126100cf57356001600160a01b03811692908390036100cc57506100c36020926000526002602052604060002054151590565b90519015158152f35b80fd5b8280fd5b5090346100cf5760203660031901126100cf576001600160a01b0382358181169391929084900361015d57610106610530565b831561014757505082546001600160a01b0319811683178455167f8be0079c531659141344cd1fd0a4f28419497f9722a3daafe3b4186f6b6457e08380a380f35b51631e4fbdf760e01b8152908101849052602490fd5b8480fd5b5050346101805781600319360112610180576020906001549051908152f35b5080fd5b5090346100cf57806003193601126100cf57602467ffffffffffffffff8135843582821161034c573660238301121561034c57818601359280841161034857600591368686851b860101116103445788939293899360421981360301915b878610610255575050505050505060038102908082046003149015171561024357600154918260011b928084046002149015171561023257501115610225578280f35b51631023582160e11b8152fd5b634e487b7160e01b86526011855285fd5b50634e487b7160e01b84526011835283fd5b8886881b8301013583811215610340578201908c8a8301359287841161018057604491828201928536038413610180578e519260209161029e601f8901601f19168401866104f8565b87855287369201011161018057856102cb966102c29583860137830101528661055c565b90939193610628565b6001600160a01b038281169116811115610330576102f6906000526002602052604060002054151590565b156103205794600019811461030e57600101946101e2565b634e487b7160e01b8c5260118b52888cfd5b895163388063eb60e11b81528b90fd5b8a516302f7e52760e21b81528c90fd5b8c80fd5b8880fd5b8780fd5b8680fd5b50503461018057816003193601126101805780516001805480835281855260208084019592939186907fb10e2d527612073b26eecdfd717e6a320cf44b4afac2b0732d9fcbe2b7fa0cf690855b8181106103ef57505050826103b39103836104f8565b8451948186019282875251809352850195925b8281106103d35785870386f35b83516001600160a01b03168752958101959281019284016103c6565b825484529284019291870191870161039d565b505034610180578160031936011261018057905490516001600160a01b039091168152602090f35b83346100cc57806003193601126100cc57610443610530565b80546001600160a01b03198116825581906001600160a01b03167f8be0079c531659141344cd1fd0a4f28419497f9722a3daafe3b4186f6b6457e08280a380f35b50346100cf5760203660031901126100cf57356001600160a01b03811692908390036100cc57506100c36020926104b9610530565b6106fa565b50346100cf5760203660031901126100cf57356001600160a01b03811692908390036100cc57506100c36020926104f3610530565b61077c565b90601f8019910116810190811067ffffffffffffffff82111761051a57604052565b634e487b7160e01b600052604160045260246000fd5b6000546001600160a01b0316330361054457565b60405163118cdaa760e01b8152336004820152602490fd5b815191906041830361058d5761058692506020820151906060604084015193015160001a90610598565b9192909190565b505060009160029190565b91907f7fffffffffffffffffffffffffffffff5d576e7357a4501ddfe92f46681b20a0841161061c57926020929160ff608095604051948552168484015260408301526060820152600092839182805260015afa156106105780516001600160a01b0381161561060757918190565b50809160019190565b604051903d90823e3d90fd5b50505060009160039190565b6004811015610697578061063a575050565b600181036106545760405163f645eedf60e01b8152600490fd5b600281036106755760405163fce698f760e01b815260048101839052602490fd5b60031461067f5750565b602490604051906335e2f38360e21b82526004820152fd5b634e487b7160e01b600052602160045260246000fd5b6001548110156106e45760016000527fb10e2d527612073b26eecdfd717e6a320cf44b4afac2b0732d9fcbe2b7fa0cf60190600090565b634e487b7160e01b600052603260045260246000fd5b600081815260026020526040812054610777576001546801000000000000000081101561076357908261074f610738846001604096016001556106ad565b819391549060031b91821b91600019901b19161790565b905560015492815260026020522055600190565b634e487b7160e01b82526041600452602482fd5b905090565b6000818152600260205260408120549091908015610861576000199080820181811161084d576001549083820191821161083957818103610805575b50505060015480156107f1578101906107d0826106ad565b909182549160031b1b19169055600155815260026020526040812055600190565b634e487b7160e01b84526031600452602484fd5b610823610814610738936106ad565b90549060031b1c9283926106ad565b90558452600260205260408420553880806107b8565b634e487b7160e01b86526011600452602486fd5b634e487b7160e01b85526011600452602485fd5b50509056fea26469706673582212202a1bcf704b756b89d4ef6b9fa86e34c46483d66609bd05d50912619eefd5d90564736f6c63430008140033",
    "linkReferences": {}
  },
  "methodIdentifiers": {
    "addValidator(address)": "4d238c8e",
    "getValidators()": "b7ab4db5",
    "isValidator(address)": "facd743b",
    "owner()": "8da5cb5b",
    "removeValidator(address)": "40a141ff",
    "renounceOwnership()": "715018a6",
    "transferOwnership(address)": "f2fde38b",
    "validateMessageWithSupermajority(bytes32,bytes[])": "d3de131d",
    "validatorsSize()": "e36d5265"
  },
  "id": 8
}