{
  "_format": "hh-sol-artifact-1",
  "contractName": "Twin",
  "sourceName": "contracts/Test.sol",
  "abi": [
    {
      "inputs": [],
      "name": "InvalidInitialization",
      "type": "error"
    },
    {
      "inputs": [],
      "name": "NotInitializing",
      "type": "error"
    },
    {
      "anonymous": false,
      "inputs": [
        {
          "indexed": false,
          "internalType": "string",
          "name": "",
          "type": "string"
        }
      ],
      "name": "Failed",
      "type": "event"
    },
    {
      "anonymous": false,
      "inputs": [
        {
          "indexed": false,
          "internalType": "uint64",
          "name": "version",
          "type": "uint64"
        }
      ],
      "name": "Initialized",
      "type": "event"
    },
    {
      "anonymous": false,
      "inputs": [
        {
          "indexed": false,
          "internalType": "uint256",
          "name": "",
          "type": "uint256"
        }
      ],
      "name": "Succeeded",
      "type": "event"
    },
    {
      "inputs": [
        {
          "internalType": "address",
          "name": "target",
          "type": "address"
        },
        {
          "internalType": "bytes",
          "name": "call",
          "type": "bytes"
        }
      ],
      "name": "dispatched",
      "outputs": [
        {
          "internalType": "bool",
          "name": "success",
          "type": "bool"
        },
        {
          "internalType": "bytes",
          "name": "response",
          "type": "bytes"
        }
      ],
      "stateMutability": "payable",
      "type": "function"
    },
    {
      "inputs": [
        {
          "internalType": "bool",
          "name": "success",
          "type": "bool"
        },
        {
          "internalType": "bytes",
          "name": "res",
          "type": "bytes"
        },
        {
          "internalType": "uint256",
          "name": "nonce",
          "type": "uint256"
        }
      ],
      "name": "finish",
      "outputs": [],
      "stateMutability": "nonpayable",
      "type": "function"
    },
    {
      "inputs": [
        {
          "internalType": "contract Relayer",
          "name": "relayer",
          "type": "address"
        }
      ],
      "name": "initialize",
      "outputs": [],
      "stateMutability": "nonpayable",
      "type": "function"
    },
    {
      "inputs": [
        {
          "internalType": "address",
          "name": "target",
          "type": "address"
        },
        {
          "internalType": "bytes",
          "name": "call",
          "type": "bytes"
        }
      ],
      "name": "queried",
      "outputs": [
        {
          "internalType": "bool",
          "name": "success",
          "type": "bool"
        },
        {
          "internalType": "bytes",
          "name": "response",
          "type": "bytes"
        }
      ],
      "stateMutability": "view",
      "type": "function"
    },
    {
      "inputs": [
        {
          "internalType": "address",
          "name": "target",
          "type": "address"
        },
        {
          "internalType": "uint256",
          "name": "num",
          "type": "uint256"
        },
        {
          "internalType": "bool",
          "name": "readonly",
          "type": "bool"
        }
      ],
      "name": "start",
      "outputs": [],
      "stateMutability": "nonpayable",
      "type": "function"
    }
  ],
  "bytecode": "0x608060405234801561001057600080fd5b50610b33806100206000396000f3fe60806040526004361061004a5760003560e01c80635d903f031461004f57806382dcc73114610079578063b2c642d114610099578063c2ab4e3e146100bb578063c4d66de8146100db575b600080fd5b61006261005d36600461072f565b6100fb565b604051610070929190610812565b60405180910390f35b34801561008557600080fd5b5061006261009436600461072f565b6101cc565b3480156100a557600080fd5b506100b96100b436600461084a565b61027c565b005b3480156100c757600080fd5b506100b96100d63660046108d3565b6103da565b3480156100e757600080fd5b506100b96100f6366004610911565b610456565b600080546060906001600160a01b031633146101325760405162461bcd60e51b815260040161012990610935565b60405180910390fd5b61015f6040518060400160405280600c81526020016b64697370617463686564282960a01b815250610574565b836001600160a01b031634620186a0908560405161017d919061096c565b600060405180830381858888f193505050503d80600081146101bb576040519150601f19603f3d011682016040523d82523d6000602084013e6101c0565b606091505b50909590945092505050565b600080546060906001600160a01b031633146101fa5760405162461bcd60e51b815260040161012990610935565b6102246040518060400160405280600981526020016871756572696564282960b81b815250610574565b836001600160a01b0316620186a084604051610240919061096c565b6000604051808303818686fa925050503d80600081146101bb576040519150601f19603f3d011682016040523d82523d6000602084013e6101c0565b6000546001600160a01b031633146102a65760405162461bcd60e51b815260040161012990610935565b6102d06040518060400160405280600881526020016766696e697368282960c01b815250826105ba565b83156103255760006102e483850185610988565b90507f7165f2912dc85f932b95e64dc5404ea80083d36994c2b797ea2763ba0b71586b8160405161031791815260200190565b60405180910390a1506103d4565b600061033460048285876109a1565b61033d916109cb565b9050600061034e84600481886109a1565b8080601f0160208091040260200160405190810160405280939291908181526020018383808284376000920191909152505082519293507fc65844e8ee2558ed559edaad0fdb8d4149b19d5bb4d863bc498bed24f6b2df51926103bc925084016020908101915084016109fb565b6040516103c99190610a69565b60405180910390a150505b50505050565b600061042b84846040516024016103f391815260200190565b60408051601f198184030181529190526020810180516001600160e01b03166329e99f0760e01b1790528463b2c642d160e01b610603565b90506103d4604051806040016040528060078152602001667374617274282960c81b815250826105ba565b7ff0c57e16840df040f15088dc2f81fe391c3923bec73e23a9662efc9c229c6a008054600160401b810460ff16159067ffffffffffffffff1660008115801561049c5750825b905060008267ffffffffffffffff1660011480156104b95750303b155b9050811580156104c7575080155b156104e55760405163f92ee8a960e01b815260040160405180910390fd5b845467ffffffffffffffff19166001178555831561050f57845460ff60401b1916600160401b1785555b600080546001600160a01b0319166001600160a01b038816179055831561056c57845460ff60401b19168555604051600181527fc7f505b2f371ae2175ee4913f4499e1f2633a7b5936321eed1cdaeb6115181d2906020016103c9565b505050505050565b6105b7816040516024016105889190610a69565b60408051601f198184030181529190526020810180516001600160e01b031663104c13eb60e21b179052610686565b50565b6105ff82826040516024016105d0929190610a7c565b60408051601f198184030181529190526020810180516001600160e01b0316632d839cb360e21b179052610686565b5050565b6000805460405163139b4a8760e01b81526001600160a01b039091169063139b4a879061063a908890889088908890600401610a9e565b6020604051808303816000875af1158015610659573d6000803e3d6000fd5b505050506040513d601f19601f8201168201806040525081019061067d9190610ae4565b95945050505050565b6105b78160006a636f6e736f6c652e6c6f679050600080835160208501845afa505050565b6001600160a01b03811681146105b757600080fd5b634e487b7160e01b600052604160045260246000fd5b604051601f8201601f1916810167ffffffffffffffff811182821017156106ff576106ff6106c0565b604052919050565b600067ffffffffffffffff821115610721576107216106c0565b50601f01601f191660200190565b6000806040838503121561074257600080fd5b823561074d816106ab565b9150602083013567ffffffffffffffff81111561076957600080fd5b8301601f8101851361077a57600080fd5b803561078d61078882610707565b6106d6565b8181528660208385010111156107a257600080fd5b816020840160208301376000602083830101528093505050509250929050565b60005b838110156107dd5781810151838201526020016107c5565b50506000910152565b600081518084526107fe8160208601602086016107c2565b601f01601f19169290920160200192915050565b821515815260406020820152600061082d60408301846107e6565b949350505050565b8035801515811461084557600080fd5b919050565b6000806000806060858703121561086057600080fd5b61086985610835565b9350602085013567ffffffffffffffff8082111561088657600080fd5b818701915087601f83011261089a57600080fd5b8135818111156108a957600080fd5b8860208285010111156108bb57600080fd5b95986020929092019750949560400135945092505050565b6000806000606084860312156108e857600080fd5b83356108f3816106ab565b92506020840135915061090860408501610835565b90509250925092565b60006020828403121561092357600080fd5b813561092e816106ab565b9392505050565b60208082526019908201527f4d7573742062652063616c6c65642062792072656c6179657200000000000000604082015260600190565b6000825161097e8184602087016107c2565b9190910192915050565b60006020828403121561099a57600080fd5b5035919050565b600080858511156109b157600080fd5b838611156109be57600080fd5b5050820193919092039150565b6001600160e01b031981358181169160048510156109f35780818660040360031b1b83161692505b505092915050565b600060208284031215610a0d57600080fd5b815167ffffffffffffffff811115610a2457600080fd5b8201601f81018413610a3557600080fd5b8051610a4361078882610707565b818152856020838501011115610a5857600080fd5b61067d8260208301602086016107c2565b60208152600061092e60208301846107e6565b604081526000610a8f60408301856107e6565b90508260208301529392505050565b6001600160a01b0385168152608060208201819052600090610ac2908301866107e6565b9315156040830152506001600160e01b03199190911660609091015292915050565b600060208284031215610af657600080fd5b505191905056fea26469706673582212200d3a5dbb1017d29a95750446823cad302cdf8d61c42ce90152978b934f77874a64736f6c63430008140033",
  "linkReferences": {},
  "deployedLinkReferences": {}
}